{
  "contractName": "MYJET",
  "abi": [
    {
      "inputs": [],
      "stateMutability": "nonpayable",
      "type": "constructor"
    },
    {
      "anonymous": false,
      "inputs": [
        {
          "indexed": true,
          "internalType": "address",
          "name": "from",
          "type": "address"
        },
        {
          "indexed": true,
          "internalType": "address",
          "name": "to",
          "type": "address"
        },
        {
          "indexed": false,
          "internalType": "uint256",
          "name": "value",
          "type": "uint256"
        }
      ],
      "name": "Transfer",
      "type": "event"
    },
    {
      "inputs": [
        {
          "internalType": "address",
          "name": "",
          "type": "address"
        }
      ],
      "name": "balanceOf",
      "outputs": [
        {
          "internalType": "uint256",
          "name": "",
          "type": "uint256"
        }
      ],
      "stateMutability": "view",
      "type": "function",
      "constant": true
    },
    {
      "inputs": [],
      "name": "decimals",
      "outputs": [
        {
          "internalType": "uint8",
          "name": "",
          "type": "uint8"
        }
      ],
      "stateMutability": "view",
      "type": "function",
      "constant": true
    },
    {
      "inputs": [],
      "name": "name",
      "outputs": [
        {
          "internalType": "string",
          "name": "",
          "type": "string"
        }
      ],
      "stateMutability": "view",
      "type": "function",
      "constant": true
    },
    {
      "inputs": [],
      "name": "owner",
      "outputs": [
        {
          "internalType": "address",
          "name": "",
          "type": "address"
        }
      ],
      "stateMutability": "view",
      "type": "function",
      "constant": true
    },
    {
      "inputs": [],
      "name": "symbol",
      "outputs": [
        {
          "internalType": "string",
          "name": "",
          "type": "string"
        }
      ],
      "stateMutability": "view",
      "type": "function",
      "constant": true
    },
    {
      "inputs": [],
      "name": "totalSupply",
      "outputs": [
        {
          "internalType": "uint256",
          "name": "",
          "type": "uint256"
        }
      ],
      "stateMutability": "view",
      "type": "function",
      "constant": true
    },
    {
      "inputs": [
        {
          "internalType": "address",
          "name": "_to",
          "type": "address"
        },
        {
          "internalType": "uint256",
          "name": "_value",
          "type": "uint256"
        }
      ],
      "name": "transfer",
      "outputs": [],
      "stateMutability": "nonpayable",
      "type": "function"
    }
  ],
  "bytecode": "0x60806040526040518060400160405280600681526020017f4d59204a45540000000000000000000000000000000000000000000000000000815250600190816200004a9190620003f0565b506040518060400160405280600481526020017f4d4a45540000000000000000000000000000000000000000000000000000000081525060029081620000919190620003f0565b506012600360006101000a81548160ff021916908360ff160217905550348015620000bb57600080fd5b50336000806101000a81548173ffffffffffffffffffffffffffffffffffffffff021916908373ffffffffffffffffffffffffffffffffffffffff1602179055506509184e72a000600481905550600454600560008060009054906101000a900473ffffffffffffffffffffffffffffffffffffffff1673ffffffffffffffffffffffffffffffffffffffff1673ffffffffffffffffffffffffffffffffffffffff16815260200190815260200160002081905550620004d7565b600081519050919050565b7f4e487b7100000000000000000000000000000000000000000000000000000000600052604160045260246000fd5b7f4e487b7100000000000000000000000000000000000000000000000000000000600052602260045260246000fd5b60006002820490506001821680620001f857607f821691505b6020821081036200020e576200020d620001b0565b5b50919050565b60008190508160005260206000209050919050565b60006020601f8301049050919050565b600082821b905092915050565b600060088302620002787fffffffffffffffffffffffffffffffffffffffffffffffffffffffffffffffff8262000239565b62000284868362000239565b95508019841693508086168417925050509392505050565b6000819050919050565b6000819050919050565b6000620002d1620002cb620002c5846200029c565b620002a6565b6200029c565b9050919050565b6000819050919050565b620002ed83620002b0565b62000305620002fc82620002d8565b84845462000246565b825550505050565b600090565b6200031c6200030d565b62000329818484620002e2565b505050565b5b8181101562000351576200034560008262000312565b6001810190506200032f565b5050565b601f821115620003a0576200036a8162000214565b620003758462000229565b8101602085101562000385578190505b6200039d620003948562000229565b8301826200032e565b50505b505050565b600082821c905092915050565b6000620003c560001984600802620003a5565b1980831691505092915050565b6000620003e08383620003b2565b9150826002028217905092915050565b620003fb8262000176565b67ffffffffffffffff81111562000417576200041662000181565b5b620004238254620001df565b6200043082828562000355565b600060209050601f83116001811462000468576000841562000453578287015190505b6200045f8582620003d2565b865550620004cf565b601f198416620004788662000214565b60005b82811015620004a2578489015182556001820191506020850194506020810190506200047b565b86831015620004c25784890151620004be601f891682620003b2565b8355505b6001600288020188555050505b505050505050565b61085480620004e76000396000f3fe608060405234801561001057600080fd5b506004361061007d5760003560e01c806370a082311161005b57806370a08231146100dc5780638da5cb5b1461010c57806395d89b411461012a578063a9059cbb146101485761007d565b806306fdde031461008257806318160ddd146100a0578063313ce567146100be575b600080fd5b61008a610164565b6040516100979190610508565b60405180910390f35b6100a86101f2565b6040516100b59190610543565b60405180910390f35b6100c66101f8565b6040516100d3919061057a565b60405180910390f35b6100f660048036038101906100f191906105f8565b61020b565b6040516101039190610543565b60405180910390f35b610114610223565b6040516101219190610634565b60405180910390f35b610132610247565b60405161013f9190610508565b60405180910390f35b610162600480360381019061015d919061067b565b6102d5565b005b60018054610171906106ea565b80601f016020809104026020016040519081016040528092919081815260200182805461019d906106ea565b80156101ea5780601f106101bf576101008083540402835291602001916101ea565b820191906000526020600020905b8154815290600101906020018083116101cd57829003601f168201915b505050505081565b60045481565b600360009054906101000a900460ff1681565b60056020528060005260406000206000915090505481565b60008054906101000a900473ffffffffffffffffffffffffffffffffffffffff1681565b60028054610254906106ea565b80601f0160208091040260200160405190810160405280929190818152602001828054610280906106ea565b80156102cd5780601f106102a2576101008083540402835291602001916102cd565b820191906000526020600020905b8154815290600101906020018083116102b057829003601f168201915b505050505081565b80600560003373ffffffffffffffffffffffffffffffffffffffff1673ffffffffffffffffffffffffffffffffffffffff16815260200190815260200160002054101580156103245750600081115b610363576040517f08c379a000000000000000000000000000000000000000000000000000000000815260040161035a90610767565b60405180910390fd5b80600560003373ffffffffffffffffffffffffffffffffffffffff1673ffffffffffffffffffffffffffffffffffffffff16815260200190815260200160002060008282546103b291906107b6565b9250508190555080600560008473ffffffffffffffffffffffffffffffffffffffff1673ffffffffffffffffffffffffffffffffffffffff168152602001908152602001600020600082825461040891906107ea565b925050819055508173ffffffffffffffffffffffffffffffffffffffff163373ffffffffffffffffffffffffffffffffffffffff167fddf252ad1be2c89b69c2b068fc378daa952ba7f163c4a11628f55a4df523b3ef8360405161046c9190610543565b60405180910390a35050565b600081519050919050565b600082825260208201905092915050565b60005b838110156104b2578082015181840152602081019050610497565b60008484015250505050565b6000601f19601f8301169050919050565b60006104da82610478565b6104e48185610483565b93506104f4818560208601610494565b6104fd816104be565b840191505092915050565b6000602082019050818103600083015261052281846104cf565b905092915050565b6000819050919050565b61053d8161052a565b82525050565b60006020820190506105586000830184610534565b92915050565b600060ff82169050919050565b6105748161055e565b82525050565b600060208201905061058f600083018461056b565b92915050565b600080fd5b600073ffffffffffffffffffffffffffffffffffffffff82169050919050565b60006105c58261059a565b9050919050565b6105d5816105ba565b81146105e057600080fd5b50565b6000813590506105f2816105cc565b92915050565b60006020828403121561060e5761060d610595565b5b600061061c848285016105e3565b91505092915050565b61062e816105ba565b82525050565b60006020820190506106496000830184610625565b92915050565b6106588161052a565b811461066357600080fd5b50565b6000813590506106758161064f565b92915050565b6000806040838503121561069257610691610595565b5b60006106a0858286016105e3565b92505060206106b185828601610666565b9150509250929050565b7f4e487b7100000000000000000000000000000000000000000000000000000000600052602260045260246000fd5b6000600282049050600182168061070257607f821691505b602082108103610715576107146106bb565b5b50919050565b7f496e73756666696369656e742066756e64730000000000000000000000000000600082015250565b6000610751601283610483565b915061075c8261071b565b602082019050919050565b6000602082019050818103600083015261078081610744565b9050919050565b7f4e487b7100000000000000000000000000000000000000000000000000000000600052601160045260246000fd5b60006107c18261052a565b91506107cc8361052a565b92508282039050818111156107e4576107e3610787565b5b92915050565b60006107f58261052a565b91506108008361052a565b925082820190508082111561081857610817610787565b5b9291505056fea2646970667358221220fa7a26fe78f0124907bf5a265e1a9cb57bda9c898291395e54a2be4407bed26a64736f6c63430008110033",
  "immutableReferences": {},
  "source": "// SPDX-License-Identifier: UNLICENSED\npragma solidity ^0.8.17;\n\ncontract MYJET{\n    address public owner; // '0xC5308Fd7bE9792Af18B34AF0A135cd21d18eBbFc';\n    string public name = \"MY JET\";\n    string public symbol = \"MJET\";\n    uint8 public decimals = 18;\n    uint256 public totalSupply ;\n\n    constructor(){\n        owner = msg.sender;\n        totalSupply = 10000000000000;\n        balanceOf[owner] = totalSupply;\n    }\n\n    mapping(address => uint256) public balanceOf;\n\n\n    event Transfer(address indexed from, address indexed to, uint256 value);\n\n\n    function transfer(address _to, uint256 _value) public {\n        require(balanceOf[msg.sender] >= _value && _value > 0, \"Insufficient funds\");\n        balanceOf[msg.sender] -= _value;\n        balanceOf[_to] += _value; \n        emit Transfer(msg.sender, _to, _value);\n    }\n\n}",
  "sourcePath": "/home/adhrit/Desktop/course/token/contracts/contracts/MYJET.sol",
  "compiler": {
    "name": "solc",
    "version": "0.8.17+commit.8df45f5f.Emscripten.clang"
  },
  "schemaVersion": "3.4.11",
  "updatedAt": "2023-02-07T14:29:09.886Z",
  "networkType": "ethereum",
  "devdoc": {
    "kind": "dev",
    "methods": {},
    "version": 1
  },
  "userdoc": {
    "kind": "user",
    "methods": {},
    "version": 1
  }
}